S01A00004D616368696E65362D315F636F64655F56332E73726563DF
S113000071C0000081C00000F5C00000C8C000003D
S1130010DAC0000079C0000077C0000075C000009D
S113002073C0000071C000006FC000006DC000000C
S11300306BC0000069C0000067C0000065C000001C
S113004063C0000061C000005FC000005DC000002C
S11300505BC0000059C0000057C0000056C000003B
S113006053C0000051C000004FC000004DC000004C
S11300704BC0000049C0000047C0000045C000005C
S113008043C0000041C000003FC000003DC000006C
S11300903BC0000039C0000037C0000035C000007C
S11300A033C0000031C000002FC000002DC000008C
S11300B02BC0000029C0000027C0000025C000009C
S11300C023C0000021C000001FC000001DC00000AC
S11300D01BC0000019C0000017C0000015C00000BC
S11300E013C0000011241FBECFEFD1E2DEBFCDBF8D
S11300F000E00CBF22E0A0E0B2E001C01D92A730F6
S1130100B207E1F7EAD2FAC27BCF1F920F920FB681
S11301100F9211240F931F932F933F934F935F9349
S11301206F937F938F939F93009103021091040226
S113013020910502309106029FB7B901A8014F5FD3
S11301405F4F6F4F7F4F809102028D5F8093020259
S1130150809102028D3758F0809102028D5780936E
S11301600202B901A8014E5F5F4F6F4F7F4F40936A
S113017003025093040260930502709306029FBF2A
S11301809F918F917F916F915F914F913F912F91AB
S11301901F910F910F900FBE0F901F9018951F92F3
S11301A00F920FB60F9211248F939F9381E090E0EA
S11301B090930102809300029F918F910F900FBE44
S11301C00F901F9018951F920F920FB60F92112443
S11301D08F939F9382E090E09093010280930002BA
S11301E085B1816085B99F918F910F900FBE0F905B
S11301F01F9018951F920F920FB60F9211248F9390
S11302009F9383E090E0909301028093000285B174
S1130210816085B99F918F910F900FBE0F901F90B1
S1130220189520E620930101009751F4E0EBF0E0EB
S113023020811082E0EAF0E0208110821092020115
S11302408F3F910521F480E6809302010895E0EB4D
S1130250F0E0208121602083208120622083E0EA75
S1130260F0E020812160208320812860208326E023
S11302702093B100E1EAF0E02081246020838093A0
S1130280B4009093AD008093AC0008958DB3886062
S11302908DBB7894109201021092000203C085B1C4
S11302A0806285B980910002909101020297B9F7AA
S11302B0F89408958AE08DBB78941092010210920C
S11302C0000203C085B1806285B9809100029091DB
S11302D0010202970297B0F7F8941DBA2FEF86E750
S11302E091E0215080409040E1F700C0000085B1CA
S11302F015B80895F89484B1806184B9E1E0F1E01F
S11303008081806480838081806280838DB18860F5
S11303108DB983B3806283BBE4E0F1E080818260C5
S113032080838EB188608EB984B3806284BBE5E03B
S1130330F1E08081826080831AB88EE08BB985B742
S113034015BEEAE0F1E0808181608083EBE0F1E0BA
S11303508081108280E090E01AC0EBE0F1E020811F
S1130360216020832FEF35EA4EE021503040404099
S1130370E1F700C00000208110822FEF35EA4EE043
S1130380215030404040E1F700C000000196823027
S113039091051CF384B1816084B985B115B880E0FE
S11303A090E018C025B1216025B92FEF35EA4EE061
S11303B0215030404040E1F700C0000025B115B89D
S11303C02FEF35EA4EE0215030404040E1F700C0C5
S11303D000000196823091052CF384B1806284B9C7
S11303E085B115B820E030E019C085B1806285B9C7
S11303F08FEF95EA4EE0815090404040E1F700C015
S1130400000085B115B88FEF95EA4EE08150904019
S11304104040E1F700C000002F5F3F4F233031051B
S113042024F38FEF93ED20E3815090402040E1F7D7
S113043000C000001092690086E08DBB0895789496
S1130440109201021092000211C085B1806185B939
S113045087E893E10197F1F700C0000085B115B872
S113046087E893E10197F1F700C000008091000252
S113047090910102019749F7F8948DB31DBA08953C
S11304808EB11EB82FEF89E698E12150804090404C
S1130490E1F700C00000789440E050E023E030E051
S11304A02DC085B1806185B980E090E007C0EFE19F
S11304B0F3E03197F1F700C000000196821793072B
S11304C0B4F34437F2E55F0714F026E030E085B179
S11304D015B880E090E007C0EFE1F3E03197F1F761
S11304E000C00000019682179307B4F34137F8E681
S11304F05F0714F02CE230E04F5F5F4F413F8DE621
S113050058077CF2F8949FEFE9E6F8E19150E04057
S1130510F040E1F700C000008EB188608EB9089504
S1130520B5DE85B115B82FEF36E741E021503040F4
S11305304040E1F700C0000085B115B880E890E0C4
S113054070DE80E090E00AC02FEF34E34CE02150ED
S113055030404040E1F700C000000196853E91051F
S11305609CF3089585B1806285B920E030E01DC018
S113057085B1806185B980E007C0E3E9F7E0319790
S1130580F1F700C000008F5F8A30B8F385B115B869
S113059080E007C0E3E9F7E03197F1F700C000001D
S11305A08F5F8A30B8F32F5F3F4F2333F4E23F0766
S11305B0FCF220E030E01DC085B1806185B980E0A7
S11305C007C0EFE1F3E03197F1F700C000008F5F5F
S11305D08A30B8F385B115B880E007C0EFE1F3E0E5
S11305E03197F1F700C000008F5F8A30B8F32F5FB6
S11305F03F4F2436FFE33F07FCF2089580E090E08C
S113060010DE85B115B820E030E019C085B18160F5
S113061085B94FEF85EA9EE0415080409040E1F774
S113062000C0000085B115B84FEF85EA9EE0415047
S113063080409040E1F700C000002F5F3F4F25301D
S1130640310524F385B1806285B908958EB11EB851
S11306502FEF89E698E1215080409040E1F700C0F7
S1130660000020E030E013C085B1806185B987E8DF
S113067093E10197F1F700C0000085B115B887E850
S113068093E10197F1F700C000002F5F3F4F2C3931
S11306909EE039074CF385B1816085B92FEF85EA77
S11306A09EE0215080409040E1F700C00000EEDD64
S11306B085B115B884B314BA80E890E0B2DD2FEFA9
S11306C085EA9EE0215080409040E1F700C00000A0
S11306D0DDDD80E090E0A5DDDECF0CDEB0DEEADD1E
S11306E08091000290910102039709F4AFDFC8DE04
S11306F017DF38DF83DF80E090E00895F894FFCFC0
S9030000FC
